{
  "_format": "hh-sol-artifact-1",
  "contractName": "Library",
  "sourceName": "contracts/Library.sol",
  "abi": [
    {
      "anonymous": false,
      "inputs": [
        {
          "components": [
            {
              "internalType": "string",
              "name": "name",
              "type": "string"
            },
            {
              "internalType": "uint8",
              "name": "copies",
              "type": "uint8"
            },
            {
              "internalType": "address[]",
              "name": "borrowedBy",
              "type": "address[]"
            }
          ],
          "indexed": false,
          "internalType": "struct Library.Book",
          "name": "book",
          "type": "tuple"
        }
      ],
      "name": "BookAdded",
      "type": "event"
    },
    {
      "anonymous": false,
      "inputs": [
        {
          "components": [
            {
              "internalType": "string",
              "name": "name",
              "type": "string"
            },
            {
              "internalType": "uint8",
              "name": "copies",
              "type": "uint8"
            },
            {
              "internalType": "address[]",
              "name": "borrowedBy",
              "type": "address[]"
            }
          ],
          "indexed": false,
          "internalType": "struct Library.Book",
          "name": "book",
          "type": "tuple"
        },
        {
          "indexed": false,
          "internalType": "address",
          "name": "user",
          "type": "address"
        }
      ],
      "name": "BookBorrowed",
      "type": "event"
    },
    {
      "anonymous": false,
      "inputs": [
        {
          "components": [
            {
              "internalType": "string",
              "name": "name",
              "type": "string"
            },
            {
              "internalType": "uint8",
              "name": "copies",
              "type": "uint8"
            },
            {
              "internalType": "address[]",
              "name": "borrowedBy",
              "type": "address[]"
            }
          ],
          "indexed": false,
          "internalType": "struct Library.Book",
          "name": "book",
          "type": "tuple"
        },
        {
          "indexed": false,
          "internalType": "uint8",
          "name": "copies",
          "type": "uint8"
        }
      ],
      "name": "BookCopiesAdded",
      "type": "event"
    },
    {
      "anonymous": false,
      "inputs": [
        {
          "components": [
            {
              "internalType": "string",
              "name": "name",
              "type": "string"
            },
            {
              "internalType": "uint8",
              "name": "copies",
              "type": "uint8"
            },
            {
              "internalType": "address[]",
              "name": "borrowedBy",
              "type": "address[]"
            }
          ],
          "indexed": false,
          "internalType": "struct Library.Book",
          "name": "book",
          "type": "tuple"
        },
        {
          "indexed": false,
          "internalType": "address",
          "name": "user",
          "type": "address"
        }
      ],
      "name": "BookReturned",
      "type": "event"
    },
    {
      "anonymous": false,
      "inputs": [
        {
          "indexed": true,
          "internalType": "address",
          "name": "previousOwner",
          "type": "address"
        },
        {
          "indexed": true,
          "internalType": "address",
          "name": "newOwner",
          "type": "address"
        }
      ],
      "name": "OwnershipTransferred",
      "type": "event"
    },
    {
      "inputs": [
        {
          "internalType": "string",
          "name": "_bookId",
          "type": "string"
        },
        {
          "internalType": "uint8",
          "name": "_copies",
          "type": "uint8"
        }
      ],
      "name": "addBook",
      "outputs": [],
      "stateMutability": "nonpayable",
      "type": "function"
    },
    {
      "inputs": [
        {
          "internalType": "string",
          "name": "_bookId",
          "type": "string"
        }
      ],
      "name": "borrowBook",
      "outputs": [],
      "stateMutability": "nonpayable",
      "type": "function"
    },
    {
      "inputs": [],
      "name": "getAllBooks",
      "outputs": [
        {
          "internalType": "string[]",
          "name": "",
          "type": "string[]"
        }
      ],
      "stateMutability": "view",
      "type": "function"
    },
    {
      "inputs": [],
      "name": "getAvailableBooks",
      "outputs": [
        {
          "internalType": "string[]",
          "name": "",
          "type": "string[]"
        }
      ],
      "stateMutability": "view",
      "type": "function"
    },
    {
      "inputs": [
        {
          "internalType": "string",
          "name": "_bookId",
          "type": "string"
        }
      ],
      "name": "getBorrowedAddressesForBook",
      "outputs": [
        {
          "internalType": "address[]",
          "name": "",
          "type": "address[]"
        }
      ],
      "stateMutability": "view",
      "type": "function"
    },
    {
      "inputs": [
        {
          "internalType": "string",
          "name": "_bookId",
          "type": "string"
        }
      ],
      "name": "isBookAvailable",
      "outputs": [
        {
          "internalType": "bool",
          "name": "",
          "type": "bool"
        }
      ],
      "stateMutability": "view",
      "type": "function"
    },
    {
      "inputs": [],
      "name": "owner",
      "outputs": [
        {
          "internalType": "address",
          "name": "",
          "type": "address"
        }
      ],
      "stateMutability": "view",
      "type": "function"
    },
    {
      "inputs": [],
      "name": "renounceOwnership",
      "outputs": [],
      "stateMutability": "nonpayable",
      "type": "function"
    },
    {
      "inputs": [
        {
          "internalType": "string",
          "name": "_bookId",
          "type": "string"
        }
      ],
      "name": "returnBook",
      "outputs": [],
      "stateMutability": "nonpayable",
      "type": "function"
    },
    {
      "inputs": [
        {
          "internalType": "address",
          "name": "newOwner",
          "type": "address"
        }
      ],
      "name": "transferOwnership",
      "outputs": [],
      "stateMutability": "nonpayable",
      "type": "function"
    }
  ],
  "bytecode": "0x608060405234801561001057600080fd5b5061002d61002261003260201b60201c565b61003a60201b60201c565b6100fe565b600033905090565b60008060009054906101000a900473ffffffffffffffffffffffffffffffffffffffff169050816000806101000a81548173ffffffffffffffffffffffffffffffffffffffff021916908373ffffffffffffffffffffffffffffffffffffffff1602179055508173ffffffffffffffffffffffffffffffffffffffff168173ffffffffffffffffffffffffffffffffffffffff167f8be0079c531659141344cd1fd0a4f28419497f9722a3daafe3b4186f6b6457e060405160405180910390a35050565b612203806200010e6000396000f3fe608060405234801561001057600080fd5b506004361061009e5760003560e01c8063a63ac38e11610066578063a63ac38e14610135578063ced96fe314610151578063d6c084d91461016d578063e8ef14991461018b578063f2fde38b146101bb5761009e565b80631ef49a8c146100a3578063354528e8146100bf57806346463185146100dd578063715018a61461010d5780638da5cb5b14610117575b600080fd5b6100bd60048036038101906100b8919061141a565b6101d7565b005b6100c761043f565b6040516100d49190611989565b60405180910390f35b6100f760048036038101906100f2919061141a565b610518565b6040516101049190611967565b60405180910390f35b6101156105c7565b005b61011f61064f565b60405161012c919061194c565b60405180910390f35b61014f600480360381019061014a919061145b565b610678565b005b61016b6004803603810190610166919061141a565b610a1e565b005b610175610c97565b6040516101829190611989565b60405180910390f35b6101a560048036038101906101a0919061141a565b610ed7565b6040516101b291906119ab565b60405180910390f35b6101d560048036038101906101d091906113f1565b610f0c565b005b60006002826040516101e9919061191e565b90815260200160405180910390209050600060058360405161020b919061191e565b908152602001604051809103902060003373ffffffffffffffffffffffffffffffffffffffff1673ffffffffffffffffffffffffffffffffffffffff168152602001908152602001600020541415610298576040517f08c379a000000000000000000000000000000000000000000000000000000000815260040161028f90611a26565b60405180910390fd5b60646005836040516102aa919061191e565b908152602001604051809103902060003373ffffffffffffffffffffffffffffffffffffffff1673ffffffffffffffffffffffffffffffffffffffff16815260200190815260200160002054436103019190611cb2565b10610341576040517f08c379a000000000000000000000000000000000000000000000000000000000815260040161033890611a86565b60405180910390fd5b6000600583604051610353919061191e565b908152602001604051809103902060003373ffffffffffffffffffffffffffffffffffffffff1673ffffffffffffffffffffffffffffffffffffffff1681526020019081526020016000208190555080600101600081819054906101000a900460ff16809291906103c390611eb4565b91906101000a81548160ff021916908360ff160217905550506103e582611004565b7feaab2b8a24c4d00ab3778f88b7ace92f102dd7c672ad6ff329e688fe50ca8e72600283604051610416919061191e565b908152602001604051809103902033604051610433929190611ac8565b60405180910390a15050565b60606001805480602002602001604051908101604052809291908181526020016000905b8282101561050f57838290600052602060002001805461048290611dd4565b80601f01602080910402602001604051908101604052809291908181526020018280546104ae90611dd4565b80156104fb5780601f106104d0576101008083540402835291602001916104fb565b820191906000526020600020905b8154815290600101906020018083116104de57829003601f168201915b505050505081526020019060010190610463565b50505050905090565b606060028260405161052a919061191e565b90815260200160405180910390206002018054806020026020016040519081016040528092919081815260200182805480156105bb57602002820191906000526020600020905b8160009054906101000a900473ffffffffffffffffffffffffffffffffffffffff1673ffffffffffffffffffffffffffffffffffffffff1681526020019060010190808311610571575b50505050509050919050565b6105cf611166565b73ffffffffffffffffffffffffffffffffffffffff166105ed61064f565b73ffffffffffffffffffffffffffffffffffffffff1614610643576040517f08c379a000000000000000000000000000000000000000000000000000000000815260040161063a90611a46565b60405180910390fd5b61064d600061116e565b565b60008060009054906101000a900473ffffffffffffffffffffffffffffffffffffffff16905090565b610680611166565b73ffffffffffffffffffffffffffffffffffffffff1661069e61064f565b73ffffffffffffffffffffffffffffffffffffffff16146106f4576040517f08c379a00000000000000000000000000000000000000000000000000000000081526004016106eb90611a46565b60405180910390fd5b60008160ff161161073a576040517f08c379a0000000000000000000000000000000000000000000000000000000008152600401610731906119e6565b60405180910390fd5b6000151560048360405161074e919061191e565b908152602001604051809103902060009054906101000a900460ff1615151415610947576001600483604051610784919061191e565b908152602001604051809103902060006101000a81548160ff02191690831515021790555060405180606001604052808381526020018260ff168152602001600067ffffffffffffffff811115610804577f4e487b7100000000000000000000000000000000000000000000000000000000600052604160045260246000fd5b6040519080825280602002602001820160405280156108325781602001602082028036833780820191505090505b50815250600283604051610846919061191e565b90815260200160405180910390206000820151816000019080519060200190610870929190611232565b5060208201518160010160006101000a81548160ff021916908360ff16021790555060408201518160020190805190602001906108ae9291906112b8565b509050506001829080600181540180825580915050600190039060005260206000200160009091909190915090805190602001906108ed929190611232565b507fbd2bceda1b3f43b49b6c339e8b4c4dde035ec10c60f035b715a06fa23259ae4360028360405161091f919061191e565b908152602001604051809103902060405161093a9190611aa6565b60405180910390a1610a11565b80600283604051610958919061191e565b908152602001604051809103902060010160009054906101000a900460ff166109819190611c7b565b600283604051610991919061191e565b908152602001604051809103902060010160006101000a81548160ff021916908360ff1602179055507f5b9d31e3781ecf50ddb6bbb2cf856b8538e9f29e26777adb35babe3c74fadb1a6002836040516109eb919061191e565b908152602001604051809103902082604051610a08929190611af8565b60405180910390a15b610a1a82611004565b5050565b6000600282604051610a30919061191e565b9081526020016040518091039020905060008160010160009054906101000a900460ff1660ff1611610a97576040517f08c379a0000000000000000000000000000000000000000000000000000000008152600401610a8e90611a06565b60405180910390fd5b6000600583604051610aa9919061191e565b908152602001604051809103902060003373ffffffffffffffffffffffffffffffffffffffff1673ffffffffffffffffffffffffffffffffffffffff1681526020019081526020016000205414610b35576040517f08c379a0000000000000000000000000000000000000000000000000000000008152600401610b2c90611a66565b60405180910390fd5b80600201339080600181540180825580915050600190039060005260206000200160009091909190916101000a81548173ffffffffffffffffffffffffffffffffffffffff021916908373ffffffffffffffffffffffffffffffffffffffff16021790555080600101600081819054906101000a900460ff1680929190610bbb90611daa565b91906101000a81548160ff021916908360ff1602179055505043600583604051610be5919061191e565b908152602001604051809103902060003373ffffffffffffffffffffffffffffffffffffffff1673ffffffffffffffffffffffffffffffffffffffff16815260200190815260200160002081905550610c3d82611004565b7fe2c4ca1f156f03f7236eedd340f06a65976811c58607996bdfbabd98c337d875600283604051610c6e919061191e565b908152602001604051809103902033604051610c8b929190611ac8565b60405180910390a15050565b6060600060018054905067ffffffffffffffff811115610ce0577f4e487b7100000000000000000000000000000000000000000000000000000000600052604160045260246000fd5b604051908082528060200260200182016040528015610d1357816020015b6060815260200190600190039081610cfe5790505b5090506000805b600180549050811015610ece57600360018281548110610d63577f4e487b7100000000000000000000000000000000000000000000000000000000600052603260045260246000fd5b90600052602060002001604051610d7a9190611935565b908152602001604051809103902060009054906101000a900460ff1615610ebb5760018181548110610dd5577f4e487b7100000000000000000000000000000000000000000000000000000000600052603260045260246000fd5b906000526020600020018054610dea90611dd4565b80601f0160208091040260200160405190810160405280929190818152602001828054610e1690611dd4565b8015610e635780601f10610e3857610100808354040283529160200191610e63565b820191906000526020600020905b815481529060010190602001808311610e4657829003601f168201915b5050505050838381518110610ea1577f4e487b7100000000000000000000000000000000000000000000000000000000600052603260045260246000fd5b60200260200101819052508180610eb790611e6b565b9250505b8080610ec690611e6b565b915050610d1a565b50819250505090565b6000600382604051610ee9919061191e565b908152602001604051809103902060009054906101000a900460ff169050919050565b610f14611166565b73ffffffffffffffffffffffffffffffffffffffff16610f3261064f565b73ffffffffffffffffffffffffffffffffffffffff1614610f88576040517f08c379a0000000000000000000000000000000000000000000000000000000008152600401610f7f90611a46565b60405180910390fd5b600073ffffffffffffffffffffffffffffffffffffffff168173ffffffffffffffffffffffffffffffffffffffff161415610ff8576040517f08c379a0000000000000000000000000000000000000000000000000000000008152600401610fef906119c6565b60405180910390fd5b6110018161116e565b50565b60001515600382604051611018919061191e565b908152602001604051809103902060009054906101000a900460ff16151514801561107457506000600282604051611050919061191e565b908152602001604051809103902060010160009054906101000a900460ff1660ff16115b156110b557600160038260405161108b919061191e565b908152602001604051809103902060006101000a81548160ff021916908315150217905550611163565b600115156003826040516110c9919061191e565b908152602001604051809103902060009054906101000a900460ff16151514801561112557506000600282604051611101919061191e565b908152602001604051809103902060010160009054906101000a900460ff1660ff16145b1561116257600060038260405161113c919061191e565b908152602001604051809103902060006101000a81548160ff0219169083151502179055505b5b50565b600033905090565b60008060009054906101000a900473ffffffffffffffffffffffffffffffffffffffff169050816000806101000a81548173ffffffffffffffffffffffffffffffffffffffff021916908373ffffffffffffffffffffffffffffffffffffffff1602179055508173ffffffffffffffffffffffffffffffffffffffff168173ffffffffffffffffffffffffffffffffffffffff167f8be0079c531659141344cd1fd0a4f28419497f9722a3daafe3b4186f6b6457e060405160405180910390a35050565b82805461123e90611dd4565b90600052602060002090601f01602090048101928261126057600085556112a7565b82601f1061127957805160ff19168380011785556112a7565b828001600101855582156112a7579182015b828111156112a657825182559160200191906001019061128b565b5b5090506112b49190611342565b5090565b828054828255906000526020600020908101928215611331579160200282015b828111156113305782518260006101000a81548173ffffffffffffffffffffffffffffffffffffffff021916908373ffffffffffffffffffffffffffffffffffffffff160217905550916020019190600101906112d8565b5b50905061133e9190611342565b5090565b5b8082111561135b576000816000905550600101611343565b5090565b600061137261136d84611b4d565b611b28565b90508281526020810184848401111561138a57600080fd5b611395848285611d68565b509392505050565b6000813590506113ac8161219f565b92915050565b600082601f8301126113c357600080fd5b81356113d384826020860161135f565b91505092915050565b6000813590506113eb816121b6565b92915050565b60006020828403121561140357600080fd5b60006114118482850161139d565b91505092915050565b60006020828403121561142c57600080fd5b600082013567ffffffffffffffff81111561144657600080fd5b611452848285016113b2565b91505092915050565b6000806040838503121561146e57600080fd5b600083013567ffffffffffffffff81111561148857600080fd5b611494858286016113b2565b92505060206114a5858286016113dc565b9150509250929050565b60006114bb83836114db565b60208301905092915050565b60006114d38383611640565b905092915050565b6114e481611d13565b82525050565b6114f381611d13565b82525050565b600061150482611bc8565b61150e8185611c2c565b935061151983611b7e565b8060005b8381101561154a57815161153188826114af565b975061153c83611bf4565b92505060018101905061151d565b5085935050505092915050565b600061156282611bd3565b61156c8185611c1b565b935061157783611b8e565b8060005b838110156115af5761158c82611f6b565b61159688826114af565b97506115a183611c01565b92505060018101905061157b565b5085935050505092915050565b60006115c782611bde565b6115d18185611c3d565b9350836020820285016115e385611ba3565b8060005b8581101561161f578484038952815161160085826114c7565b945061160b83611c0e565b925060208a019950506001810190506115e7565b50829750879550505050505092915050565b61163a81611d25565b82525050565b600061164b82611be9565b6116558185611c4e565b9350611665818560208601611d77565b61166e81611f7e565b840191505092915050565b600061168482611be9565b61168e8185611c70565b935061169e818560208601611d77565b80840191505092915050565b600081546116b781611dd4565b6116c18186611c4e565b945060018216600081146116dc57600181146116ee57611721565b60ff1983168652602086019350611721565b6116f785611bb3565b60005b83811015611719578154818901526001820191506020810190506116fa565b808801955050505b50505092915050565b6000815461173781611dd4565b6117418186611c70565b9450600182166000811461175c576001811461176d576117a0565b60ff198316865281860193506117a0565b61177685611bb3565b60005b8381101561179857815481890152600182019150602081019050611779565b838801955050505b50505092915050565b60006117b6602683611c5f565b91506117c182611f9c565b604082019050919050565b60006117d9603383611c5f565b91506117e482611feb565b604082019050919050565b60006117fc602f83611c5f565b91506118078261203a565b604082019050919050565b600061181f602683611c5f565b915061182a82612089565b604082019050919050565b6000611842602083611c5f565b915061184d826120d8565b602082019050919050565b6000611865602c83611c5f565b915061187082612101565b604082019050919050565b6000611888602283611c5f565b915061189382612150565b604082019050919050565b600060608301600080840185830360008701526118bb83826116aa565b925050600184015490506118ce81611e20565b6118db6020870182611900565b506002840185830360408701526118f28382611557565b925050819250505092915050565b61190981611d5b565b82525050565b61191881611d5b565b82525050565b600061192a8284611679565b915081905092915050565b6000611941828461172a565b915081905092915050565b600060208201905061196160008301846114ea565b92915050565b6000602082019050818103600083015261198181846114f9565b905092915050565b600060208201905081810360008301526119a381846115bc565b905092915050565b60006020820190506119c06000830184611631565b92915050565b600060208201905081810360008301526119df816117a9565b9050919050565b600060208201905081810360008301526119ff816117cc565b9050919050565b60006020820190508181036000830152611a1f816117ef565b9050919050565b60006020820190508181036000830152611a3f81611812565b9050919050565b60006020820190508181036000830152611a5f81611835565b9050919050565b60006020820190508181036000830152611a7f81611858565b9050919050565b60006020820190508181036000830152611a9f8161187b565b9050919050565b60006020820190508181036000830152611ac0818461189e565b905092915050565b60006040820190508181036000830152611ae2818561189e565b9050611af160208301846114ea565b9392505050565b60006040820190508181036000830152611b12818561189e565b9050611b21602083018461190f565b9392505050565b6000611b32611b43565b9050611b3e8282611e3a565b919050565b6000604051905090565b600067ffffffffffffffff821115611b6857611b67611f3c565b5b611b7182611f7e565b9050602081019050919050565b6000819050602082019050919050565b60008190508160005260206000209050919050565b6000819050602082019050919050565b60008190508160005260206000209050919050565b600081519050919050565b600081549050919050565b600081519050919050565b600081519050919050565b6000602082019050919050565b6000600182019050919050565b6000602082019050919050565b600082825260208201905092915050565b600082825260208201905092915050565b600082825260208201905092915050565b600082825260208201905092915050565b600082825260208201905092915050565b600081905092915050565b6000611c8682611d5b565b9150611c9183611d5b565b92508260ff03821115611ca757611ca6611ede565b5b828201905092915050565b6000611cbd82611d51565b9150611cc883611d51565b925082821015611cdb57611cda611ede565b5b828203905092915050565b600073ffffffffffffffffffffffffffffffffffffffff82169050919050565b600060ff82169050919050565b6000611d1e82611d31565b9050919050565b60008115159050919050565b600073ffffffffffffffffffffffffffffffffffffffff82169050919050565b6000819050919050565b600060ff82169050919050565b82818337600083830152505050565b60005b83811015611d95578082015181840152602081019050611d7a565b83811115611da4576000848401525b50505050565b6000611db582611d5b565b91506000821415611dc957611dc8611ede565b5b600182039050919050565b60006002820490506001821680611dec57607f821691505b60208210811415611e0057611dff611f0d565b5b50919050565b6000611e19611e1483611f8f565b611ce6565b9050919050565b6000611e33611e2e83611f8f565b611d06565b9050919050565b611e4382611f7e565b810181811067ffffffffffffffff82111715611e6257611e61611f3c565b5b80604052505050565b6000611e7682611d51565b91507fffffffffffffffffffffffffffffffffffffffffffffffffffffffffffffffff821415611ea957611ea8611ede565b5b600182019050919050565b6000611ebf82611d5b565b915060ff821415611ed357611ed2611ede565b5b600182019050919050565b7f4e487b7100000000000000000000000000000000000000000000000000000000600052601160045260246000fd5b7f4e487b7100000000000000000000000000000000000000000000000000000000600052602260045260246000fd5b7f4e487b7100000000000000000000000000000000000000000000000000000000600052604160045260246000fd5b6000611f778254611e06565b9050919050565b6000601f19601f8301169050919050565b60008160001c9050919050565b7f4f776e61626c653a206e6577206f776e657220697320746865207a65726f206160008201527f6464726573730000000000000000000000000000000000000000000000000000602082015250565b7f54686520626f6f6b2073686f756c642068617665206174206c65617374206f6e60008201527f6520636f707920746f2062652061646465642100000000000000000000000000602082015250565b7f54686520626f6f6b20686173206e6f20617661696c61626c6520636f7069657360008201527f20617420746865206d6f6d656e74210000000000000000000000000000000000602082015250565b7f54686520626f6f6b206973206e6f7420626f72726f776564206279207468697360008201527f2075736572210000000000000000000000000000000000000000000000000000602082015250565b7f4f776e61626c653a2063616c6c6572206973206e6f7420746865206f776e6572600082015250565b7f54686520626f6f6b2069732063757272656e746c7920626f72726f776564206260008201527f7920746869732075736572210000000000000000000000000000000000000000602082015250565b7f54686520626f6f6b20776173206e6f742072657475726e6564206f6e2074696d60008201527f6521000000000000000000000000000000000000000000000000000000000000602082015250565b6121a881611d13565b81146121b357600080fd5b50565b6121bf81611d5b565b81146121ca57600080fd5b5056fea26469706673582212204c7d55f98a398196c8a52669e93836783048173e586bfb2d9bbde665f7b0379764736f6c63430008040033",
  "linkReferences": {},
  "deployedLinkReferences": {}
}